:200000000C94540A0C94810A0C94810A0C94810A0C94810A0C94810A0C94810A0C94810AB5
:200020000C94810A0C94810A0C94810A0C94810A0C94810A0C94810A0C94810A0C94810A68
:200040000C94810A0C94E91C0C94810A0C94810A0C94810A0C94810A0C9417140C94F17D4B
:200060000C94810A0C942F540C94810A0C94810A0C94810A0C94810A0C94810A0C94810A30
:200080000C94810A0C94810A0C94810A0C94810A0C94810A0C94810A0C94810A0C94810A08
:2000A0000C94810A0C94810A0C94810A0C94810A0C94810A0C94810A0C94810A0C94810AE8
:2000C0000C94810A0C94810A0C94810A0C94810A0C94810A0C94810A0C94810A0C94810AC8
:2000E0000C94810A084AD73B3BCE016E84BCBFFDC12F3D6C74319ABD56833DDA3D00C77FF5
:2001000011BED9E4BB4C3E916BAAAABE000000803F05A84CCDB2D44EB93836A9020C50B9C0
:20012000918688083CA6AAAA2ABE000000803F4572726F723A0054656D70657261747572CE
:20014000652068656174656420626564207377697463686564206F66662E204D41585445C1
:200160004D5020747269676765726564202121003A204578747275646572207377697463AC
:20018000686564206F66662E204D494E54454D50207472696767657265642021003A2045AE
:2001A00078747275646572207377697463686564206F66662E204D415854454D50207472EB
:2001C0006967676572656420210070012C0190012701B0012201C0011D01F00118011002E1
:2001E000130130020E016002090190020401C002FF000003FA004003F5008003F000D0036B
:20020000EB002004E6007004E100E004DC004005D700C005D2004006CD00D006C8008007E9
:20022000C3003008BE00F008B900C009B400B00AAF00B00BAA00D00CA500000EA000500F7B
:200240009B00C01096005012910000148C00C0158700B0178200B0197D00D01B7800001E9E
:20026000730040206E0090226900F024640040275F0090295A00E02B5500102E5000203093
:200280004B0010324600E033410090353C001037370070383200A0392D00B03A2800A03BEB
:2002A0002300603C1E00103D1900903D1400103E0F00703E0A00C03E0500003F0000202D76
:2002C00020496E76616C6964206578747275646572206E756D626572202100202D20496E96
:2002E00076616C6964206578747275646572206E756D6265722100504944204175746F7487
:20030000756E652066696E6973686564202120506C61636520746865204B702C204B692089
:20032000616E64204B6420636F6E7374616E747320696E2074686520636F6E6669677572E9
:200340006174696F6E2E6800504944204175746F74756E65206661696C6564212074696D8A
:20036000656F75740020403A006F6B20543A00504944204175746F74756E65206661696C90
:200380006564212054656D706572617475726520746F206869676800204B643A2000204B6E
:2003A000693A2000204B703A200020436C617369632050494420002054753A2000204B7596
:2003C0003A2000206D61783A2000206D696E3A200020643A200020626961733A200024F436
:2003E00004D9201BC40C5C0E9804C4095F0265077101F405F900FB04B30048048700C103C8
:2004000069005803550003034500BE023A008402310053022A002902250004022000E401ED
:200420001C00C8011900AF0117009801140084011300710110006101100051010E0043011A
:200440000D0036010B002B010B0020010B00150109000C01090003010800FB000800F300B3
:200460000800EB000700E4000600DE000600D8000600D2000600CC000500C7000500C2009F
:200480000500BD000400B9000400B5000400B1000400AD000400A9000400A5000300A200C3
:2004A00003009F0004009B000300980003009500020093000300900003008D0002008B0083
:2004C0000300880002008600020084000300810002007F0002007D0002007B000200790007
:2004E000020077000100760002007400020072000100710002006F0002006D0001006C0063
:2005000002006A0001006900020067000100660001006500010064000200620001006100A4
:200520000100600001005F0002005D0001005C0001005B0001005A000100590001005800D4
:200540000100570001005600010055000100540001005300000053000100520001005100F5
:200560000100500001004F0001004E0000004E0001004D0001004C0001004B0000004B000B
:2005800001004A00010049000100480000004800010047000100460000004600010045001A
:2005A000000045000100440001004300000043000100420000004200010041000000410022
:2005C0000100400001003F0000003F0001003E0000003E0001003D0000003D0001003C0026
:2005E00000003C0000003C0001003B0000003B0001003A0000003A00010039000000390024
:2006000001003800000038000000380001003700000037000100360000003600000036001F
:20062000010035000000350000003500010034000000340000003400010033000000330016
:2006400000003300010032000000320000003200010031000000310000003100010030000B
:20066000000030000000300001002F0000002F0000002F0000002F0001002E0000002E0000
:2006800000002E0001002D0000002D0000002D0000002D0001002C0000002C0000002C00F2
:2006A00000002C0001002B0000002B0000002B0000002B0001002A0000002A0000002A00E2
:2006C00000002A0001002900000029000000290000002900000029000100280000002800D1
:2006E0000000280000002800000028000100270000002700000027000000270000002700BE
:200700000100260000002600000026000000260000002600010025000000250000002500AA
:20072000000025000000250000002500010024000000240000002400000024000000240095
:20074000010023000000230000002300000023000000230000002300000023000100220080
:2007600000002200000022000000220000002200000022000100210000002100000021006B
:20078000000021000000210000002100000021000100200000002000000020000000200054
:2007A0000000200000002000000020000000200001001F0000001F0000001F0000001F003C
:2007C00000001F0000001F0000001F0001001E0000001E0000001E0000001E00000024F42B
:2007E000D43050C38E20C2A24017828B7011127A910D816CD90AA861E108C75866076151C1
:2008000043061E4B5D05C145A7041A411104093D9803713931034036DB0265339102D43062
:200820005402802E1D02632CEE01752AC501B028A001102781018F2564012B244B01E022CA
:200840003401AC211F018D200D01801FFC00841EED00971DDF00B81CD200E61BC600201B56
:20086000BC00641AB200B219A8000A19A0006A189900D117910040178B00B516840031164A
:200880007E00B31579003A157300C7146F0058146A00EE1366008813630025135E00C712E3
:2008A0005B006C12570015125400C111510070114F0021114B00D61049008D1047004610B4
:2008C000440002104200C00F4000800F3E00420F3C00060F3B00CB0E3800930E37005C0E74
:2008E0003500270E3400F30D3200C10D3100900D3000600D2E00320D2D00050D2C00D90C32
:200900002B00AE0C2900850C29005C0C2700350C27000E0C2600E80B2400C40B2400A00B23
:2009200023007D0B23005A0B2100390B2100180B2000F80A1F00D90A1E00BB0A1E009D0A0F
:200940001D00800A1D00630A1C00470A1B002C0A1B00110A1A00F7091A00DD091900C40972
:200960001900AB091900920917007B091800630917004C09160036091600200916000A09AE
:200980001500F5081500E0081400CC081400B8081400A4081400900813007D0812006B0803
:2009A0001300580812004608120034081100230811001208110001081100F0071000E00796
:2009C0001000D0071000C0071000B0070F00A107100091070E0083070F0074070F00650796
:2009E0000E0057070E0049070E003B070D002E070E0020070D0013070D0006070D00F90619
:200A00000C00ED060D00E0060C00D4060C00C8060C00BC060C00B0060C00A4060B00990634
:200A20000C008D060B0082060B0077060B006C060B0061060A0057060B004C060A004206F7
:200A40000A0038060A002E060A0024060A001A060A001006090007060A00FD050900F4056E
:200A60000900EB050900E2050900D9050900D0050900C7050900BE050900B5050800AD05AA
:200A80000800A50509009C050800940508008C050800840508007C050800740508006C05AC
:200AA0000700650508005D050700560508004E05070047050700400508003805070031057D
:200AC00007002A050700230507001C050600160507000F0507000805060002050700FB0426
:200AE0000600F5040700EE040600E8040600E2040700DB040600D5040600CF040600C904AF
:200B00000600C3040600BD040600B7040600B1040500AC040600A6040600A00405009B0412
:200B2000060095040500900406008A04050085040500800406007A04050075040500700457
:200B400005006B04050066040500610405005C04050057040500520405004D040500480481
:200B60000500430405003E0404003A04050035040500300404002C0405002704040023049A
:200B800005001E0404001A04040016040500110404000D0404000904050004040400000499
:200BA0000400FC030400F8030400F4030400F0030400EC030400E8030400E4030400E0038D
:200BC0000400DC030400D8030400D4030400D0030400CC030400C8030300C5030300656369
:200BE000686F3A00205A3A0020593A0020583A00656E6473746F7073206869743A20006537
:200C000063686F3A0020746F6F206C6F6E6720657874727573696F6E2070726576656E74E9
:200C200065640020636F6C6420657874727573696F6E2070726576656E74656400656368FB
:200C40006F3A0043616E6E6F7420656E746572207375626469723A004572726F723A0065BE
:200C600072726F722077726974696E6720746F2066696C65004E6F74205344207072696E07
:200C800074696E67002F005344207072696E74696E67206279746520002E0044656C657441
:200CA000696F6E206661696C65642C2046696C653A200046696C652064656C657465643A92
:200CC000002E006F70656E206661696C65642C2046696C653A200057726974696E67207411
:200CE0006F2066696C653A20002E006F70656E206661696C65642C2046696C653A20002EB2
:200D0000006F70656E206661696C65642C2046696C653A200046696C652073656C65637456
:200D20006564002053697A653A0046696C65206F70656E65643A002E006F70656E206661D9
:200D4000696C65642C2046696C653A200053442063617264206F6B006F70656E526F6F742E
:200D6000206661696C656400766F6C756D652E696E6974206661696C656400534420696E61
:200D80006974206661696C007C3C3E5E2B3D3F2F5B5D3B2C2A225C004572726F723A005035
:200DA00072696E7465722073746F707065642064657520746F206572726F72732E20466965
:200DC0007820746865206572726F7220616E6420757365204D39393920746F207265737437
:200DE000617274212E202854656D70657261747572652069732072657365742E20536574CE
:200E0000206974206265666F72652072657374617274696E6729005072696E74657220684A
:200E2000616C7465642E206B696C6C28292063616C6C6564202121006F6B00526573656E9F
:200E4000643A006563686F3A002200556E6B6E6F776E20636F6D6D616E643A22007A5F6D68
:200E600061783A007A5F6D696E3A00795F6D61783A00795F6D696E3A00785F6D61783A0003
:200E8000785F6D696E3A005A3A00593A0020436F756E7420583A00453A005A3A00593A0055
:200EA000583A004649524D574152455F4E414D453A4D61726C696E2056313B205370726986
:200EC0006E7465722F6772626C206D617368757020666F722067656E36204649524D5741F8
:200EE00052455F55524C3A687474703A2F2F7777772E6D656E64656C2D70617274732E6387
:200F00006F6D2050524F544F434F4C5F56455253494F4E3A312E30204D414348494E455FA1
:200F2000545950453A4D656E64656C2045585452554445525F434F554E543A310A0020428E
:200F40003A0020453A00543A0020573A0020453A00543A0020403A00202F0020423A0020A7
:200F60002F006F6B20543A00456E642066696C65206C69737400426567696E2066696C6562
:200F8000206C6973740053657474696E67732053746F7265640053746F72656420736574B6
:200FA00074696E6773207265747265697665643A002044002049002020204D33303120506A
:200FC000005049442073657474696E67733A00204500205A002058002042002054002020FC
:200FE0004D323035205300416476616E636564207661726961626C65733A20533D4D696E9D
:2010000020666565647261746520286D6D2F73292C20543D4D696E2074726176656C20664E
:201020006565647261746520286D6D2F73292C20423D6D696E696D756D207365676D656E83
:20104000742074696D6520286D73292C20583D6D6178696D756D207859206A65726B202818
:201060006D6D2F73292C20205A3D6D6178696D756D205A206A65726B20286D6D2F73290097
:2010800020540020204D323034205300416363656C65726174696F6E3A20533D6163636506
:2010A0006C65726174696F6E2C20543D7265747261637420616363656C65726174696F6EF6
:2010C00000204500205A0020590020204D3230312058004D6178696D756D20416363656C4A
:2010E00065726174696F6E20286D6D2F7332293A00204500205A0020590020204D3230332B
:201100002058004D6178696D756D2066656564726174657320286D6D2F73293A002045001A
:20112000205A0020590020204D393220580053746570732070657220756E69743A00446F09
:201140006E65207072696E74696E672066696C65005072696E7465722073746F707065646E
:201160002064657520746F206572726F72732E2046697820746865206572726F7220616E42
:201180006420757365204D39393920746F2072657374617274212E202854656D70657261D9
:2011A000747572652069732072657365742E20536574206974206265666F726520726573BC
:2011C00074617274696E6729006F6B004E6F204C696E65204E756D62657220776974682029
:2011E000636865636B73756D2C204C617374204C696E653A004E6F20436865636B73756DCA
:201200002077697468206C696E65206E756D6265722C204C617374204C696E653A006368F4
:2012200065636B73756D206D69736D617463682C204C617374204C696E653A004C696E6566
:20124000204E756D626572206973206E6F74204C617374204C696E65204E756D6265722B88
:20126000312C204C617374204C696E653A00446F6E6520736176696E672066696C652E005F
:201280006F6B002020506C616E6E657242756666657242797465733A2000204672656520E7
:2012A0004D656D6F72793A20006A6F686E6E7900207C20417574686F723A20003230313277
:2012C0002D30352D333000204C61737420557064617465643A2000312E302E302052433223
:2012E000004D61726C696E3A200020536F667477617265205265736574002057617463688C
:20130000646F67205265736574002042726F776E206F7574205265736574002045787465F7
:20132000726E616C20526573657400506F7765725570007374617274002200656E7175659D
:20134000696E6720220000002100240027002A002D003000330001010000040107010A01CD
:2013600000002200250028002B002E003100340002010000050108010B01000020002300DF
:20138000260029002C002F0032000001000003010601090105050505070508080808020217
:2013A00002020A0A08080404040401010101010101010303030303030303040707070C0CA4
:2013C0000C0C0C0C0C0C0202020206060606060606060B0B0B0B0B0B0B0B010210202008DA
:2013E000081020401020408002010201080402010102040810204080804020100804020172
:20140000800402018040201008040201080402010102040810204080010204081020408039
:201420000000090A02080B0C0D070603040100000000000000000000000000000000000056
:2014400000000000000000000000000011100F00000000000000000000000000000000005C
:20146000000000000000494E46494E4954594E414ECDCCCC3D0AD7233C17B7D13877CC2BFE
:20148000329595E6241FB14F0A000020410000C84200401C4620BCBE4CCA1B0E5AAEC59D6D
:2014A0007400C354CB58C65811241FBECFEFD1E2DEBFCDBF00E00CBF13E0A0E0B2E0E4E63A
:2014C000F9E001E00BBF02C007900D92AC3DB107D9F71BBE1FE0ACEDB3E001C01D92A934CE
:2014E000B107E1F714E1C6EAD4E104C02297FE010E945884C23AD107C9F70E943A7F0C9479
:20150000A6840C940000A0E0B0E0E9E8FAE00C947584EC015B016115710519F0FB0191835F
:201520008083F9908F2D90E00E945C84892BC9F7FDE2FF1621F4F990EE24E39405C02BE210
:20154000F21609F4F990EE248E0101501040C80166E674E143E050E062D2892BF9F48E019A
:201560000E5F1F4FC80169E674E145E050E057D2892B19F48E01095F1F4FA114B10419F00C
:20158000F50111830083E0FC04C070E090E080E813C070E090E080E86FEF07C1C8016EE638
:2015A00074E143E050E03BD2892B69F4A114B10429F470E090E080EC6FE7F7C02296F501F7
:2015C000D183C083F6CF8824992440E050E060E070E0EF2DE053EA30A0F5F2E0EF2A8E2DC2
:2015E00090E09C0128703070E2FE06C0232B79F50894811C911C2BC0232B19F008948108F7
:201600009108DB01CA0112E0880F991FAA1FBB1F1A95D1F7480F591F6A1F7B1F440F551F76
:20162000661F771F4E0F511D611D711D483929E9520729E9620729E1720748F084E0E82A20
:2016400006C0EE3F31F4E3FC39C098E0E92AF990C0CFE53311F0E53189F529912D3219F424
:20166000E0E1EE2A05C02B3219F081E090E003C0299182E090E0E22FE053EA3018F0C81BFD
:20168000D90B1CC020E030E0FCE020383F075CF4C901880F991F880F991F280F391F220F88
:2016A000331F2E0F311DE991E053EA3068F3E4FE03C0309521953F4F820E931ECE2CDD2441
:2016C000E1FE07C0A114B10421F02197F501D183C083CB01BA010E94C1807B018C01F3E05E
:2016E000CF22DD2423E0C216D10421F417FB109517F9109557016801C801B70120E030E075
:2017000040E050E00E942180882309F44AC097FE0DC025E8E22E24E1F22E9094819491080E
:201720009394C0E2D0E000E010E012C09DE9E92E94E1F92EF6CFF701259135914591549161
:20174000C601B5010E9401835B016C018C1A9D0A8C169D0684F7D595C7950F5F1F4F063038
:20176000110529F08CEF9FEFE80EF91EF1CFC501D6017C018D018C2D880F8D2D881F8F3F3D
:2017800051F0C601B50120E030E040E050E00E942180882331F482E290E09093480F8093B7
:2017A000470F7E2D9F2D802F612F272F392F482F562FB901CA01CDB7DEB7ECE00C94918444
:2017C0002F923F925F926F927F928F929F92AF92BF92CF92DF92EF92FF920F931F93CF93F6
:2017E000DF938C011B01EA016115710519F0FB0191838083209749F0CE010297839728F051
:2018000020E030E040E050E0F6C0F801A1908F018A2D90E00E945C84892BB9F7FDE2AF1647
:2018200031F4F801A1908F015524539407C0FBE2AF1619F4F801A1908F015524209719F000
:20184000C031D105C1F4F0E3AF1679F4F8018081883711F0883549F4F801A1800E5F1F4F5E
:20186000F2E05F2AC0E1D0E006C0209721F480E3A816E9F427C0C830D10531F1C930D10586
:2018800024F4C230D10531F50CC0CA30D10589F0C031D105F9F4C12CD12CE12CB8E0FB2EC1
:2018A00028C0C12CD12CE12CA0E4FA2E22C0CAE0D0E0FCECCF2EFCECDF2EFCECEF2EFCE0A6
:2018C000FF2E17C0C8E0D0E0C12CD12CE12CE0E1FE2E0FC09E01442737FD4095542F60E023
:2018E00070E080E090E80E940584C901DA016C017D0120E030E040E050E060E03E0188247A
:2019000077FC8094982C70EDB72EBA0CE9E0EB1570F48A2D81548A3118F499ECB92E06C0C2
:201920008A2D81568A3150F589EAB82EBA0C8B2D90E08C179D0714F56F3FE1F0C216D30652
:20194000E406F506B0F0CA01B901A40193010E94D3839B01AC012B0D311D411D511D213060
:20196000F0E03F07F0E04F07F0E85F0710F461E001C06FEFF801A1908F01C5CF21143104D1
:2019800081F0662331F001501040F1011183008308C051FE1AC002501040F10111830083E6
:2019A00014C067FF12C050FC05C02FEF3FEF4FEF5FE704C020E030E040E050E882E290E03A
:2019C0009093480F8093470F16C050FE08C050954095309521953F4F4F4F5F4F0CC057FF07
:2019E0000AC082E290E09093480F8093470F2FEF3FEF4FEF5FE7B901CA01DF91CF911F9191
:201A00000F91FF90EF90DF90CF90BF90AF909F908F907F906F905F903F902F900895FB014A
:201A2000DC014150504088F08D9181341CF08B350CF4805E659161341CF06B350CF4605EBE
:201A4000861B611171F3990B0895881BFCCFFB01DC0104C08D910190801921F44150504045
:201A6000C8F7881B990B0895FB01DC0102C001900D9241505040D8F70895FB01DC010D90F5
:201A80000020E9F7119701900D920020E1F70895FC018191861721F08823D9F79927089544
:201AA0003197CF010895FB01DC0101900D920020E1F70895FB01DC014150504030F08D911B
:201AC0000190801919F40020B9F7881B990B0895FB01DC014150504048F001900D92002099
:201AE000C9F701C01D9241505040E0F70895FB0151915523A9F0BF01DC014D914517411109
:201B0000E1F759F4CD010190002049F04D9140154111C9F3FB014111EFCF81E090E0019732
:201B20000895AEE0B0E0E7E9FDE00C947D840E891F8986E08C831A8309838FEF9FE79E839A
:201B40008D839E01265E3F4FCE010196688D798DA9010AD02F813885020F131FF8011082A4
:201B60002E96E4E00C949984ABE0B0E0EAEBFDE00C946F843C012B015A01FC0117821682CE
:201B8000838181FD03C06FEF7FEFB9C19AE0892E1E010894211C311CF3012381F20123FD99
:201BA000859123FF81912F01882309F4A5C1853239F423FD859123FF81912F01853221F453
:201BC00090E0B301B7D1E8CF982FFF24EE249924FFE1FF15D0F09B3269F09C3228F4903263
:201BE00059F0933291F40EC09D3249F0903369F441E024C052E0F52A84E0F82A28C098E020
:201C0000F92A25C0E0E1FE2A22C0F7FC29C0892F80538A3070F4F6FE05C0989C902C11248E
:201C2000980E15C0E89CE02C1124E80EF0E2FF2A0EC09E3229F4F6FC5FC140E4F42A07C09D
:201C40009C3619F450E8F52A02C0983649F4F20123FD959123FF91912F01992309F0B8CF98
:201C6000892F8554833018F08052833038F444E050E0A40EB51E5FE359830FC0933631F0B7
:201C8000933779F0933509F052C01FC0F5018081898342E050E0A40EB51E610101E010E052
:201CA00011C0F501C080D180F6FC03C06FEF7FEF02C0692D70E042E050E0A40EB51EC60105
:201CC0002ED18C015FE7F52213C0F501C080D180F6FC03C06FEF7FEF02C0692D70E042E076
:201CE00050E0A40EB51EC6010FD18C0150E8F52AF3FE06C018C080E290E0B3011BD1EA9425
:201D00008E2D90E008171907B0F30DC0F601F7FC8591F7FE81916F0190E0B3010BD1E11081
:201D2000EA94015010400115110581F7E2C0943611F0993661F5F7FE08C0F5012081318148
:201D40004281538184E090E00AC0F501808191819C01442737FD4095542F82E090E0A80E29
:201D6000B91E9FE6F92257FF09C050954095309521953F4F4F4F5F4FE0E8FE2ACA01B90149
:201D8000A1012AE030E002D1D82ED2183FC0953729F41F2D1F7E2AE030E01DC01F2D197F18
:201DA0009F3661F0903720F4983509F0A5C00FC0903739F0983709F09FC004C028E030E035
:201DC0000AC0106114FD146020E130E004C014FD166020E132E017FF08C0F501608171812D
:201DE0008281938144E050E008C0F50180819181BC0180E090E042E050E0A40EB51EA101A1
:201E0000C5D0D82ED2188FE7F82EF122F6FE0BC05EEFF522D91438F4F4FE07C0F2FC05C0E6
:201E20008FEEF82202C01D2D01C0192DF4FE0DC0FE01ED0DF11D8081803319F499EEF922CF
:201E400008C01F5FF2FE05C003C08F2D867809F01F5F0F2DF3FC13C0F0FE0EC01E1510F0A6
:201E60009D2C0AC09D2C9E0C911A1E2D05C080E290E0B3015FD01F5F1E15C8F304C01E1589
:201E800010F4E11A01C0EE2404FF0EC080E390E0B30150D002FF1BC001FD03C088E790E07C
:201EA0000EC088E590E00BC0802F867881F001FF02C08BE201C080E2F7FC8DE290E0B301B6
:201EC00039D005C080E390E0B30134D09A94D914C8F3DA94F101ED0DF11D808190E0B30146
:201EE00029D0DD20B1F705C080E290E0B30122D0EA94EE20C9F750CEF30166817781CB01FE
:201F00002B96E2E10C948B84FC010590615070400110D8F7809590958E0F9F1F0895FC018C
:201F20006150704001900110D8F7809590958E0F9F1F08950F931F93CF93DF938C01EB01FC
:201F40008B8181FF1BC082FF0DC02E813F818C819D812817390764F4E881F9810193F98368
:201F6000E88306C0E885F985802F1995892B31F48E819F8101969F838E8302C00FEF1FEF48
:201F8000C801DF91CF911F910F910895FA01AA27283051F1203181F1E8946F936E7F6E5F5A
:201FA0007F4F8F4F9F4FAF4FB1E03ED0B4E03CD0670F781F891F9A1FA11D680F791F8A1F66
:201FC000911DA11D6A0F711D811D911DA11D20D009F468943F912AE0269F11243019305DF1
:201FE0003193DEF6CF010895462F4770405D4193B3E00FD0C9F7F6CF462F4F70405D4A33FA
:2020000018F0495D31FD4052419302D0A9F7EACFB4E0A6959795879577956795BA95C9F725
:2020200000976105710508959B01AC010A2E06945795479537952795BA95C9F7620F731F13
:20204000841F951FA01D089560E070E08FE793E42091220330912303409124035091250394
:202060000E942880609303047093040480930504909306040895FC01E851FC4F808190E039
:2020800008950F931F93DC0141E050E0BA01660F771F660F771F6E5F7F4FFB01E653FE4F33
:2020A000859194918A179B070CF033C09A0121503040220F331F220F331FC90186539E4FA1
:2020C000FC010591149124533E4FF90125913491FA01EE0FFF1FEE0FFF1FE653FE4F859182
:2020E0009491FB01E653FE4F65917491801B910BA21BB30B621B730B9C012A9FC0012B9FA0
:20210000900D3A9F900D11240E94F283600F711F11C0842F8F5F4F5F5F4F4D33510509F0C4
:20212000B5CF8D3319F060E070E004C0EAEBF2E06591749120EF3FE3261B370BC9011F912E
:202140000F9108952F923F924F925F926F927F928F929F92AF92BF92CF92DF92EF92FF9204
:202160000F931F93CF93DF93C0EFDFE3C81BD90B21E030E0A901440F551F440F551FFA01BB
:20218000E653FE4F85919491C817D9070CF059C0B90161507040660F771F660F771FCB01AD
:2021A00084539E4FFC010591149166537E4FFB01C590D490FA01E453FE4FE590F490FA0175
:2021C000E653FE4FA590B490B801882777FD8095982F0E94C3801B012C01CC19DD09BE0190
:2021E000882777FD8095982F0E94C3803B014C01E01AF10A0027F7FC0095102FC801B7010E
:202200000E94C3809B01AC01C401B3010E9401837B018C01AC18BD08CC24B7FCC094DC2C60
:20222000C601B5010E94C3809B01AC01C801B7010E9428809B01AC01C201B1010E94487F01
:2022400019C0822F8F5F2F5F3F4F2D33310509F091CF8D3329F0E0E070E080E060E00CC0A6
:20226000ECEBF2E065917491882777FD8095982F0E94C380E62F692F2E2F372F482F562F6A
:20228000B901CA01DF91CF911F910F91FF90EF90DF90CF90BF90AF909F908F907F906F90D3
:2022A0005F904F903F902F900895089575980E942A58882319F5EFE2F1E0949108C08091FE
:2022C000C00085FFFCCF9093C600319694919923B1F7E6E3F1E0949108C08091C00085FFDA
:2022E000FCCF9093C600319694919923B1F78091C00085FFFCCF8AE08093C60008952F9219
:202300003F924F925F926F927F928F929F92AF92BF92CF92DF92EF92FF920F931F93DF937A
:20232000CF930F920F92CDB7DEB76C01162F662369F1EFE2F1E0949108C08091C00085FF67
:20234000FCCF9093C600319694919923B1F78CE59CE0612F70E04AE050E00E94AB55EEEBD7
:20236000F2E0949108C08091C00085FFFCCF9093C600319694919923B1F78091C00085FFF0
:20238000FCCF8AE08093C6000E940E59A12FB0E0AA0FBB1FFD01EF59FC4F20813181211519
:2023A000310509F497C0F0EF8F2EFFE39F2E8C189D08AD59BC4F6D917C91A1E06CC08A01AB
:2023C000000F111F000F111FF901E00FF11F85919491881699060CF05DC0CA010197880FFB
:2023E000991F880F991FFC013296E20FF31FC590D490820F931FFC01859194919A838983B1
:20240000F8013296E20FF31FE590F490F901E00FF11FA590B490B601882777FD8095982FD7
:202420000E94C3801B012C01B401A981BA816A1B7B0B882777FD8095982F0E94C3803B0129
:202440004C01EC18FD080027F7FC0095102FC801B7010E94C3809B01AC01C401B3010E946E
:2024600001837B018C01E981FA81AE1ABF0ACC24B7FCC094DC2CC601B5010E94C3809B015C
:20248000AC01C801B7010E9428809B01AC01C201B10137C0AF5F4A2F50E0461757070CF49D
:2024A0008ECF4617570729F0E0E070E080E060E02CC0FB01EE0FFF1FEE0FFF1F3297E20F63
:2024C000F31F65917491882777FD8095982F0E94C38019C0B601882777FD8095982F0E94DA
:2024E000C38020E030E04AEF5EE30E94018320E030E040E85DE30E94018320E030E040E01B
:2025000050E00E94487FE62F692F2E2F372F482F562FB901CA010F900F90CF91DF911F9173
:202520000F91FF90EF90DF90CF90BF90AF909F908F907F906F905F904F903F902F9008953C
:20254000EF92FF920F931F93CF93DF937C01062F662369F1EFE2F1E0949108C08091C0004C
:2025600085FFFCCF9093C600319694919923B1F78CE59CE0602F70E04AE050E00E94AB550B
:20258000EBEDF2E0949108C08091C00085FFFCCF9093C600319694919923B1F78091C0007A
:2025A00085FFFCCF8AE08093C6000E940E59A02FB0E0AA0FBB1FFD01EF59FC4F408151816A
:2025C0004115510509F467C0AD59BC4F6D917C9121E046C0ED01CC0FDD1FCC0FDD1F2296B4
:2025E000FA01EC0FFD1F859194918E159F050CF036C09D0121503040220F331F220F331FD0
:20260000CA01820F931FFC01059114912E5F3F4F240F351FF90125913491FD01EE0FFF1F44
:20262000EE0FFF1FE40FF51F85919491FA01EC0FFD1F65917491801B910BE21AF30A621B83
:20264000730B9C012E9DC0012F9D900D3E9D900D11240E94F283CB01800F911F17C02F5F36
:20266000A22FB0E0A617B7070CF4B4CFA617B70719F080E090E00AC0FB013197EE0FFF1FFE
:20268000EE0FFF1FE40FF51F8591949160EF7FE3681B790B15C0B701882777FD8095982F99
:2026A0000E94C3802FE632E143E050E40E94018320E030E040E851E40E9401830E9490804B
:2026C000CB01DF91CF911F910F91FF90EF90089580E090E060E034DF9093DD038093DC034B
:2026E00080E090E0A0E0B0E08093E4039093E503A093E603B093E70380E090E0C2DC10929C
:20270000DD031092DC031092E8039FB7F894E2E0F1E080818F7B80839FBF1092DF031092C4
:20272000DE031092E9039FB7F894E2E0F1E080818F7E80839FBF1092DF031092DE03759832
:2027400008951F93182FC4DF0E942A58882391F5EFE2F1E0949108C08091C00085FFFCCF3C
:202760009093C600319694919923B1F78CE59CE0612F70E04AE050E00E94AB558091C00086
:2027800085FFFCCF8AE08093C600E0E7F1E0949108C08091C00085FFFCCF9093C600319652
:2027A00094919923B1F78091C00085FFFCCF8AE08093C6001F9108951F93182F89DF0E94DD
:2027C0002A58882391F5EFE2F1E0949108C08091C00085FFFCCF9093C60031969491992306
:2027E000B1F78CE59CE0612F70E04AE050E00E94AB558091C00085FFFCCF8AE08093C60005
:20280000EDE9F1E0949108C08091C00085FFFCCF9093C600319694919923B1F78091C000FA
:2028200085FFFCCF8AE08093C6001F9108951F920F920FB60F920BB60F9211242F933F93D6
:202840004F935F936F937F938F939F93AF93BF93EF93FF9320913203222371F48091E80308
:202860008093EC03882341F09FB7F894809102018064809302019FBF8091EC03281740F0BD
:202880009FB7F894809102018F7B809302019FBF2F5F2F77209332038091ED03833009F4F7
:2028A00048C0843028F48130E1F08230C0F50DC0853009F466C0853008F457C0863009F437
:2028C0007CC0873009F082C07AC010927B0080E480937C0080917A00806480937A0081E023
:2028E0001BC08091780090917900A0E0B0E02091FA033091FB034091FC035091FD03280F75
:20290000391F4A1F5B1F2093FA033093FB034093FC035093FD0382E08093ED0357C082E474
:2029200080937C0080917A00806480937A0083E0F3CF8091780090917900A0E0B0E0209103
:20294000EE033091EF034091F0035091F103280F391F4A1F5B1F2093EE033093EF0340939C
:20296000F0035093F10384E0D7CF10927B0081E480937C0080917A00806480937A0085E011
:20298000CBCF8091780090917900A0E0B0E02091F6033091F7034091F8035091F903280F25
:2029A000391F4A1F5B1F2093F6033093F7034093F8035093F90386E0AFCF87E0ADCF10925D
:2029C000ED038091FE038F5F8093FE038091FE03803108F470C02FEF3FE38091FA03909195
:2029E000FB03A901481B590B5093E1034093E0038091EE039091EF03281B390B3093E303A6
:202A00002093E20381E08093E9031092FE031092FA031092FB031092FC031092FD031092F7
:202A2000F6031092F7031092F8031092F9031092F2031092F3031092F4031092F5031092C2
:202A4000EE031092EF031092F0031092F10380912E0390912F034817590744F01092DD03BC
:202A60001092DC0380E0A8DE0E94D0582091E0033091E1038091EA039091EB0382179307AC
:202A800044F01092DD031092DC0380E05ADE0E94D0582091E2033091E303809130039091FB
:202AA0003103281739073CF01092DF031092DE03FDDB0E94D058FF91EF91BF91AF919F91BE
:202AC0008F917F916F915F914F913F912F910F900BBE0F900FBE0F901F90189580E090E0C7
:202AE000A0E0B0E08093FF0390930004A0930104B093020460E070E08FE793E420912203B6
:202B00003091230340912403509125030E9428806093030470930404809305049093060435
:202B2000E1E0F1E08081806480838081806180836D9A80818062808388E061E070E00E94AE
:202B40002D5887ED80937A00EEE7F0E0108210927D008081816080838081826080838081CD
:202B60008460808380E888BDEEE6F0E08081846080836AEF70E080E090E00E94A97E8AE089
:202B800090E060E0DDDC9093EB038093EA038AEF90E060E0D5DC90932F0380932E038AE0DE
:202BA00090E06FDA90930804809307048AE390E068DA909331038093300308952F923F9224
:202BC0004F925F926F927F928F929F92AF92BF92CF92DF92EF92FF920F931F938091E903F8
:202BE000882309F47EC18FB7F8941092E9038FBF8091E0039091E10360E081DB3B014C0122
:202C00006091E4037091E5038091E6039091E703A40193010E94477F7B018C016093090444
:202C200070930A0480930B0490930C0420E030E040E251E40E942F82181624F481E08093BA
:202C40000D04EFC0C801B70120E030E040E251EC0E942180882324F481E080930D04CCC0AD
:202C600080910D04882371F080E090E0A0E0B0E080930E0490930F04A0931004B09311044C
:202C800010920D04C801B70120911E0330911F0340912003509121030E9401831B012C01E3
:202CA00060931204709313048093140490931504C801B70120910E0430910F04409110048D
:202CC000509111040E94487F5B016C01E090FF03F09000040091010410910204A801970158
:202CE0000E94218087FD12C0E0900304F09004040091050410910604C601B501A801970139
:202D00000E942F82181614F086017501E0920E04F0920F040093100410931104C801B70138
:202D2000209122033091230340912403509125030E9401835B016C016093160470931704BB
:202D40008093180490931904C401B30120911A0430911B0440911C0450911D040E94477F81
:202D6000209126033091270340912803509129030E94018320ED3CEC4CE45DE30E94018394
:202D80007B018C0160911E0470911F04809120049091210423E333E343E75FE30E940183CA
:202DA0009B01AC01C801B7010E94487F7B018C0160931E0470931F0480932004909321041D
:202DC00060921A0470921B0480921C0490921D04C201B101A60195010E94487FA8019701F1
:202DE0000E94477F7B018C0120E030E040E050E00E94218088235CF40F2EF0E0EF2EF0E0CA
:202E0000FF2EF0E00F2FF0E01F2FF02D14C0C801B70120E030E04FE753E40E942F821816E9
:202E200054F40F2EF0E0EF2EF0E0FF2EFFE70F2FF3E41F2FF02D2091E0033091E103809173
:202E4000EA039091EB038217930784F480912E0390912F03281739074CF4C801B7010E9454
:202E60009080759567956093E80302C01092E8030E94397E209122043091230440912404FE
:202E800050912504621B730B840B950B685873418040904030F10E94397E60932204709364
:202EA000230480932404909325042091E2033091E30380910704909108048217930784F433
:202EC0008091300390913103281739074CF48091DE039091DF032817390714F4759A01C04E
:202EE00075981F910F91FF90EF90DF90CF90BF90AF909F908F907F906F905F904F903F9012
:202F00002F9008952F923F924F925F926F927F928F929F92AF92BF92CF92DF92EF92FF9217
:202F20000F931F93DF93CF93CDB7DEB7AF970FB6F894DEBF0FBECDBF6A8F7B8F8C8F9D8F79
:202F40000E94397E698B7A8B8B8B9C8BE0E0F2E007C08091C00085FFFCCF31969093C600B9
:202F600090819923B1F78091C00085FFFCCF8AE08093C600ADDB8FE78093E80329893A8908
:202F80004B895C892D873E874F87588B29873A874B875C871FA61EA631E03D8B5FE7A52EA5
:202FA000B12CC12CD12C4FE7642E712C812C912CE6EDF3E044914E8FE1EDF3E054915F8FAF
:202FC000EAECF3E0849188A3E3ECF3E0949199A3EDEBF3E0A491AAA3E7EBF3E0B491BBA390
:202FE000EAEAF3E024912CA3E4EAF3E034913DA3EEE9F3E044914EA3E8E9F3E054915FA365
:20300000E9E6F3E0849188A7E5E6F3E0949199A78091E903882309F475C28FB7F894109277
:20302000E9038FBF8091E0039091E10360E067D96AA77BA78CA79DA769817A818B819C8125
:203040002AA53BA54CA55DA50E942F82181644F08AA59BA5ACA5BDA589839A83AB83BC8361
:20306000C201B1012AA53BA54CA55DA50E94218087FD06C08AA59BA5ACA5BDA51C012D013F
:20308000AD89AA2309F445C06AA57BA58CA59DA52A8D3B8D4C8D5D8D0E942F8218160CF0CA
:2030A00031C20E94397E29853A854B855C85621B730B840B950B695873418040904008F47B
:2030C00021C2D601C50186199709A809B909B595A795979587958093E8030E94397E6D87A5
:2030E0007E878F87988BDC01CB0129853A854B855C85821B930BA40BB50B8D839E83AF83BE
:20310000B8878A8D9B8DAC8DBD8D89839A83AB83BC836AA57BA58CA59DA52A8D3B8D4C8D1E
:203120005D8D0E94218088230CF0EBC10E94397E2D853E854F855889621B730B840B950B62
:20314000695873418040904008F4DBC10E94397E69877A878B879C874EA55FA5452B09F4EF
:20316000B8C1DC01CB012D853E854F855889821B930BA40BB50B2D813E814F815885280F08
:20318000391F4A1F5B1F2E8B3F8B488F598F2D813E814F815885281B390B4A0B5B0BCA018B
:2031A000B901A40193010E94D3832E893F89488D598D0E9427842A0D3B1D4C1D5D1D2431D6
:2031C0003105410551055CF424E1622E712C812C912C94E1A92EB12CC12CD12C1FC05901E5
:2031E0006A013CEEA316B104C104D1042CF08BEEA82EB12CC12CD12C40E8A416B104C104A4
:20320000D1041CF43501460109C00EEF602E712C812C912C6A187B088C089D089E8DE6EDB5
:20322000F3E008C08091C00085FFFCCF9093C600319694919923B1F78CE59CE0B601A50150
:203240002AE030E00E9478559F8DE1EDF3E008C08091C00085FFFCCF9093C600319694915B
:203260009923B1F78CE59CE0B401A3012AE030E00E94785598A1EAECF3E008C08091C000A0
:2032800085FFFCCF9093C600319694919923B1F78CE59CE0B201A10122E030E00E947E56DC
:2032A00099A1E3ECF3E008C08091C00085FFFCCF9093C600319694919923B1F78CE59CE024
:2032C00049815A816B817C8122E030E00E947E568091C00085FFFCCF8AE08093C6008EA542
:2032E0009FA503970CF4F5C0C401B3010E94C38020E030E040E850E40E9401837B018C0142
:2033000069817A818B819C81A20191010E94477F20ED3FE049E450E40E94018320E030E03F
:2033200040E05FE30E9401839B01AC01C801B7010E9428807B018C016E897F89888D998DAE
:203340000E94C38020E030E04AE754E40E9428801B012C019AA1EDEBF3E008C08091C000FD
:2033600085FFFCCF9093C600319694919923B1F78CE59CE0B801A70122E030E00E947E56EF
:203380009BA1E7EBF3E008C08091C00085FFFCCF9093C600319694919923B1F78CE59CE03E
:2033A000B201A10122E030E00E947E568091C00085FFFCCF8AE08093C600C801B7012AE939
:2033C00039E949E15FE30E9401837B018C019CA1EAEAF3E008C08091C00085FFFCCF909341
:2033E000C600319694919923B1F78091C00085FFFCCF8AE08093C6009DA1E4EAF3E008C0AD
:203400008091C00085FFFCCF9093C600319694919923B1F78CE59CE0B801A70122E030E0F3
:203420000E947E568091C00085FFFCCF8AE08093C6009EA1EEE9F3E008C08091C00085FFAD
:20344000FCCF9093C600319694919923B1F7C801B701A80197010E94487FA20191010E9466
:203460002880AB01BC018CE59CE022E030E00E947E568091C00085FFFCCF8AE08093C60063
:203480009FA1E8E9F3E008C08091C00085FFFCCF9093C600319694919923B1F7C801B701A6
:2034A000A20191010E94018320E030E040E05EE30E940183AB01BC018CE59CE022E030E0B2
:2034C0000E947E568091C00085FFFCCF8AE08093C600D401C3018A0D9B1DAC1DBD1DB5953E
:2034E000A795979587958093E803AEA5BFA51196BFA7AEA72A8C3B8C4C8C5D8CB1E0BD8B1A
:2035000001C01D8A6A8D7B8D8C8D9D8D20E030E040EA51E40E94487F9B01AC016AA57BA5B1
:203520008CA59DA50E942F8218169CF4EFE6F3E0949108C08091C00085FFFCCF9093C60069
:20354000319694919923B1F78091C00085FFFCCF9FC00E94397E29893A894B895C89621B98
:20356000730B840B950B615D77408040904008F441C00E94397E698B7A8B8B8B9C8B98A5D0
:20358000E9E6F3E008C08091C00085FFFCCF9093C600319694919923B1F78091E003909153
:2035A000E10360E00E947F11AB01BC018CE59CE022E030E00E947E5699A5E5E6F3E008C033
:2035C0008091C00085FFFCCF9093C600319694919923B1F76091E8038CE59CE070E04AE04F
:2035E00050E00E94AB558091C00085FFFCCF8AE08093C6000E94397E7B018C010E94397EDB
:203600002D853E854F855889E21AF30A040B150B29853A854B855C85E21AF30A040B150B12
:20362000E60EF71E081F191F31E8E3163FE4F30632E1030730E0130798F0E8E4F3E0949161
:2036400008C08091C00085FFFCCF9093C600319694919923B1F78091C00085FFFCCF18C051
:203660004EA55FA5463051050CF4D2CCE7EFF2E0949108C08091C00085FFFCCF9093C6004B
:20368000319694919923B1F78091C00085FFFCCF8AE08093C600AF960FB6F894DEBF0FBE77
:2036A000CDBFCF91DF911F910F91FF90EF90DF90CF90BF90AF909F908F907F906F905F90A9
:2036C0004F903F902F90089510925A0410925D04109260040895809337030895EFE6F0E0AB
:2036E0008081826080830895EAE0F1E08081826080838081816080838081846080838081F8
:20370000806480830F9A179A0E9A169A0D9A159A0C9A149A26982E9A52985A9A25982D9A7E
:2037200053985B9A24982C9AE4E0F1E080818E7F80839FB7F894E5E0F1E080818160808324
:203740009FBF389A179A399A169A3A9A159A3B9A149AA1E8B0E08C918F7E8C938C91886098
:203760008C93E0E8F0E080818D7F808380818E7F808380818F73808380818F7C80838C913F
:20378000887F82608C9380E090E490938900809388001092850010928400EFE6F0E0808113
:2037A0008260808381E080933703789408951F93FC011FB7F89480819181A281B38180933F
:2037C000340490933504A0933604B0933704FB0180819181A281B381809338049093390455
:2037E000A0933A04B0933B04FA0180819181A281B38180933C0490933D04A0933E04B09302
:203800003F04F90180819181A281B3818093400490934104A0934204B09343041FBF1F91B1
:203820000895FC012FB7F89480819181A281B3818093400490934104A0934204B093430450
:203840002FBF0895E82F8FB7F894F0E0EE0FFF1FEE0FFF1FEC5CFB4F208131814281538172
:203860008FBFB901CA01089580916F008D7F80936F0006C08091B1098F5F8F708093B1097F
:203880009091B0098091B109981751F4109227041092260480916F00826080936F00089575
:2038A0009091B0098091B109981751F3E3CF0F931F93182F062F86E260E00E94E17C1EBD6C
:2038C0000DB407FEFDCF8EB50EBD0DB407FEFDCF8EB586E261E00E94E17C1F910F910895DE
:2038E00086E261E00E942E7C0E941C7C84E090E067E870E0DCDF85E090E067E870E0D7DF41
:2039000083E090E067E870E0D2DF80E090E065EA70E0CDDF81E090E06DE770E0C8DF999A1A
:20392000A19A989AA09AE7E0F1E08081806880839FB7F894E8E0F1E08081806880839FBF97
:203940009A9AA29AE7E0F1E08081806480839FB7F894E8E0F1E08081806480839FBFE7E0EF
:20396000F1E08081806280839FB7F894E8E0F1E08081806280839FBFE7E0F1E08081886050
:2039800080839FB7F894E8E0F1E08081886080839FBFE7E0F1E08081806180839FB7F89400
:2039A000E8E0F1E08081806180839FBF08959091B0098091B109981729F000D981E00E9445
:2039C0006659F5CF0895F3DF179A169A159A149A08951F920F920FB60F920BB60F9211244B
:2039E000AF92BF92CF92DF92EF92FF920F931F932F933F934F935F936F937F938F939F932D
:203A0000AF93BF93CF93DF93EF93FF938091260490912704892B09F08EC19091B0098091BC
:203A2000B109981719F4E0E0F0E014C08091B10990E02DE430E0829FF001839FF00D929FEE
:203A4000F00D1124E052FB4FE45BFF4F81E08083EC54F040F0932704E0932604309709F448
:203A600064C1E45BFF4F81E08083EC54F0401092690410926A0410926B0410926C0464AD6D
:203A800075AD70936804609367042CE96134720718F060E47CE904C03EE46132730730F050
:203AA000769567957695679584E007C047E26131740730F07695679582E08093620407C0CE
:203AC000809362046032710510F460E270E06052704058E060307507E8F0472F50E0440F58
:203AE000551F440F551F42525C4F9A012E5F3F4FF901859194919C01AA27639FC001629F2F
:203B0000810D9A1F06948A1F9A1F1124FA01459154911EC0CB01969587958C7F8252984FC0
:203B2000FC0145915491FC01329625913491862F90E087709070FC012E9FC0012F9F900D7B
:203B40003E9F900D1124B3E096958795BA95E1F7481B590B44365105A8F4E3E1F2E007C025
:203B60008091C00085FFFCCF31969093C60090819923B1F78CE59CE04AE050E00E94D255F0
:203B800044E650E0CA01A0E0B0E08093630490936404A0936504B093660450938900409363
:203BA0008800E0912604F091270460AD71ADFCE961347F0718F060E47CE904C02EE46132F1
:203BC000720730F0769567957695679584E007C037E26131730730F07695679582E0809352
:203BE000620408C081E0809362046032710510F460E270E06052704048E060307407E8F0B2
:203C0000472F50E0440F551F440F551F42525C4F9A012E5F3F4FF901859194919C01AA27D8
:203C2000639FC001629F810D9A1F06948A1F9A1F1124FA01459154911EC0CB0196958795A1
:203C40008C7F8252984FFC0145915491FC01329625913491862F90E087709070FC012E9FC0
:203C6000C0012F9F900D3E9F900D112433E0969587953A95E1F7481B590B44365105A8F435
:203C8000E3E1F2E007C08091C00085FFFCCF31969093C60090819923B1F78CE59CE04AE06B
:203CA00050E00E94D25544E650E050936E0440936D04E0912604F091270480899189A28983
:203CC000B389B695A79597958795B095A095909581959F4FAF4FBF4F809344049093450463
:203CE000A0934604B09347048093480490934904A0934A04B0934B0480934C0490934D0400
:203D0000A0934E04B0934F048093500490935104A0935204B0935304109254041092550491
:203D2000109256041092570406C080ED97E09093890080938800C0912604D09127042097DB
:203D400009F44BC588A1809358042091370380FF47C08FB7F89490910B01926090930B012D
:203D60008FBF8FEF80933303222309F47BC083B182958695869583708095282F217080FFC1
:203D80002CC080915904882341F188819981AA81BB81181619061A061B06FCF4809134049B
:203DA00090913504A0913604B09137048093280490932904A0932A04B0932B0481E08093EC
:203DC0005A0488899989AA89BB898093540490935504A0935604B09357042093590442C0B7
:203DE0009FB7F89480910B018D7F80930B019FBF31E0309333032223A9F189B186958695E2
:203E00008095282F217080FF2BC080915B04882339F188819981AA81BB81181619061A06FF
:203E20001B06F4F48091340490913504A0913604B09137048093280490932904A0932A04FF
:203E4000B0932B0430935A0488899989AA89BB898093540490935504A0935604B093570413
:203E600020935B04809158042091370381FF46C08FB7F89490910B019E7F90930B018FBFB9
:203E80008FEF80933403222309F47BC083B18295869587708095282F217080FF2CC0809107
:203EA0005C04882341F18C819D81AE81BF81181619061A061B06FCF4809138049091390402
:203EC000A0913A04B0913B0480932C0490932D04A0932E04B0932F0481E080935D0488899B
:203EE0009989AA89BB898093540490935504A0935604B093570420935C0443C09FB7F8941F
:203F000080910B01816080930B019FBF31E0309334032223B1F189B1869586958695809594
:203F2000282F217080FF2BC080915E04882339F18C819D81AE81BF81181619061A061B06BF
:203F4000F4F48091380490913904A0913A04B0913B0480932C0490932D04A0932E04B093A0
:203F60002F0430935D0488899989AA89BB898093540490935504A0935604B093570420937B
:203F80005E04809158042091370382FF45C08FB7F89490910B01946090930B018FBF8FEFF3
:203FA00080933503222309F476C083B182958F708095282F217080FF2CC080915F0488236D
:203FC00041F188859985AA85BB85181619061A061B06FCF480913C0490913D04A0913E0471
:203FE000B0913F048093300490933104A0933204B093330481E08093600488899989AA897D
:20400000BB898093540490935504A0935604B093570420935F043FC09FB7F89480910B0136
:204020008B7F80930B019FBF31E030933503222391F1209103012170232759F180916104D6
:20404000882339F188859985AA85BB85181619061A061B06F4F480913C0490913D04A09197
:204060003E04B0913F048093300490933104A0933204B09333043093600488899989AA896B
:20408000BB898093540490935504A0935604B0935704209361048091580483FF0AC08FB7B3
:2040A000F89490910B019F7B90930B018FBF8FEF09C08FB7F89490910B01906490930B0147
:2040C0008FBF81E08093360360E06AC18091C00087FF19C04091C600E091580CF091590CF8
:2040E00031969F012F773070319780915A0C90915B0C2817390739F0E852F44F40833093A1
:20410000590C2093580C288139814A815B818091440490914504A0914604B0914704280F18
:20412000391F4A1F5B1F2093440430934504409346045093470412161306140615066CF51B
:20414000409A88899989AA89BB89281B390B4A0B5B0B209344043093450440934604509392
:20416000470440982091340430913504409136045091370480913303992787FD9095A92F8A
:20418000B92F820F931FA41FB51F8093340490933504A0933604B09337042C813D814E8191
:2041A0005F818091480490914904A0914A04B0914B04280F391F4A1F5B1F20934804309311
:2041C000490440934A0450934B0412161306140615066CF5419A88899989AA89BB89281BA0
:2041E000390B4A0B5B0B209348043093490440934A0450934B04419820913804309139049A
:2042000040913A0450913B0480913403992787FD9095A92FB92F820F931FA41FB51F809311
:20422000380490933904A0933A04B0933B04288539854A855B8580914C0490914D04A091D1
:204240004E04B0914F04280F391F4A1F5B1F20934C0430934D0440934E0450934F0412166C
:204260001306140615066CF5429A88899989AA89BB89281B390B4A0B5B0B20934C04309301
:204280004D0440934E0450934F04429820913C0430913D0440913E0450913F048091350325
:2042A000992787FD9095A92FB92F820F931FA41FB51F80933C0490933D04A0933E04B0938C
:2042C0003F042C853D854E855F858091500490915104A0915204B0915304280F391F4A1F7F
:2042E0005B1F2093500430935104409352045093530412161306140615066CF5439A8889FD
:204300009989AA89BB89281B390B4A0B5B0B20935004309351044093520450935304439865
:204320002091400430914104409142045091430480913603992787FD9095A92FB92F820F3F
:20434000931FA41FB51F8093400490934104A0934204B09343048091540490915504A0913E
:204360005604B09157040196A11DB11D8093540490935504A0935604B09357042091540409
:2043800030915504409156045091570488899989AA89BB89281739074A075B0730F46F5FCE
:2043A0008091620468170CF491CE209154043091550440915604509157048C899D89AE89AC
:2043C000BF8982179307A407B50708F4E3C0E0906304F09064040091650410916604AC8C60
:2043E000BD8CCE8CDF8CA8019701C601B501AA27279FB12D389FF001489FF00D479FE00DFD
:20440000F11D289FB00DE11DFA1F379FB00DE11DFA1F469FB00DE11DFA1F369FB10DEA1FF4
:20442000FA1FB695EA1FFA1F11248CAD9DAD8E0F9F1F909368048093670428AD39AD4AAD24
:204440005BADA0E0B0E0281739074A075B0720F430936804209367046091670470916804E8
:204460008CE96134780718F060E47CE904C09EE46132790730F0769567957695679584E017
:2044800007C0E7E261317E0730F07695679582E08093620408C081E08093620460327105C9
:2044A00010F460E270E060527040F8E060307F07E8F0472F50E0440F551F440F551F425276
:2044C0005C4F9A012E5F3F4FF901859194919C01AA27639FC001629F810D9A1F06948A1F8A
:2044E0009A1F1124FA01459154911EC0CB01969587958C7F8252984FFC0145915491FC01AC
:20450000329625913491862F90E087709070FC012E9FC0012F9F900D3E9F900D1124B3E004
:2045200096958795BA95E1F7481B590B44365105A8F4E3E1F2E007C08091C00085FFFCCF5D
:2045400031969093C60090819923B1F78CE59CE04AE050E00E94D25544E650E05093890060
:20456000409388009A0140E050E08091630490916404A0916504B0916604820F931FA41FA9
:20458000B51F8093630490936404A0936504B0936604FEC0209154043091550440915604ED
:2045A00050915704888D998DAA8DBB8D82179307A407B50708F0E4C06091690470916A0402
:2045C00080916B0490916C042C8D3D8D4E8D5F8DAA27639FB12D749FF001849FF00D839F89
:2045E000E00DF11D649FB00DE11DFA1F739FB00DE11DFA1F829FB00DE11DFA1F729FB10D3F
:20460000EA1FFA1FB695EA1FFA1F112480916704909168048E179F0738F4C05CDF4F688123
:204620007981C054D04003C0BC016E1B7F0BC05CDF4F288139814A815B81CB01A0E0B0E099
:2046400082179307A407B50708F4B901FCE961347F0718F060E47CE904C02EE46132720777
:2046600030F0769567957695679584E007C037E26131730730F07695679582E080936204BA
:2046800008C081E0809362046032710510F460E270E06052704048E060307407E8F0472FF7
:2046A00050E0440F551F440F551F42525C4F9A012E5F3F4FF901859194919C01AA27639FA2
:2046C000C001629F810D9A1F06948A1F9A1F1124FA01459154911EC0CB01969587958C7FEE
:2046E0008252984FFC0145915491FC01329625913491862F90E087709070FC012E9FC00160
:204700002F9F900D3E9F900D112423E0969587952A95E1F7481B590B44365105A8F4E3E1A7
:20472000F2E007C08091C00085FFFCCF31969093C60090819923B1F78CE59CE04AE050E054
:204740000E94D25544E650E050938900409388009A0140E050E08091690490916A04A09146
:204760006B04B0916C04820F931FA41FB51F8093690490936A04A0936B04B0936C0408C011
:2047800080916D0490916E0490938900809388002091540430915504409156045091570433
:2047A000E0912604F091270480899189A289B389281739074A075B0780F010922704109217
:2047C00026049091B0098091B109981731F08091B1098F5F8F708093B109209184003091BF
:2047E000850080918800909189002817390730F08FEA90E09093850080938400FF91EF911A
:20480000DF91CF91BF91AF919F918F917F916F915F914F913F912F911F910F91FF90EF901A
:20482000DF90CF90BF90AF900F900BBE0F900FBE0F901F90189580915A04882349F48091E5
:204840005D04882329F480916004882309F4C0C0EEEDFBE0949108C08091C00085FFFCCFCF
:204860009093C600319694919923B1F7E0EFFBE0949108C08091C00085FFFCCF9093C6005F
:20488000319694919923B1F780915A04882351F1ECEEFBE0949108C08091C00085FFFCCFAA
:2048A0009093C600319694919923B1F7609128047091290480912A0490912B040E94C38000
:2048C000209183043091840440918504509186040E942880AB01BC018CE59CE022E030E0E0
:2048E0000E947E5680915D04882351F1E8EEFBE0949108C08091C00085FFFCCF9093C6003C
:20490000319694919923B1F760912C0470912D0480912E0490912F040E94C380209187043C
:20492000309188044091890450918A040E942880AB01BC018CE59CE022E030E00E947E5635
:2049400080916004882351F1E4EEFBE0949108C08091C00085FFFCCF9093C6003196949166
:204960009923B1F7609130047091310480913204909133040E94C38020918B0430918C0463
:2049800040918D0450918E040E942880AB01BC018CE59CE022E030E00E947E56E7E2F2E07F
:2049A00007C08091C00085FFFCCF31969093C60090819923B1F78091C00085FFFCCF8AE061
:2049C0008093C60010925A0410925D041092600408958093B2090895FC016081718182811A
:2049E000938120918F043091900440919104509192040E9401830E94D1826093DB0470933D
:204A0000DC048093DD049093DE048BED94E00C94111C8F929F92AF92BF92CF92DF92EF92CD
:204A2000FF920F931F93FC018B015A01490160817181828193812091830430918404409127
:204A40008504509186040E9401830E94D1823FECC32E34E0D32E6093CF047093D004809366
:204A6000D1049093D204F801608171818281938120918704309188044091890450918A042F
:204A80000E9401830E94D18224E0E22EF12CEC0CFD1C6093D304F701718382839383F501F2
:204AA000608171818281938120918B0430918C0440918D0450918E040E9401830E94D1828B
:204AC0008601085F1F4F6093D704F801718382839383F401608171818281938120918F0481
:204AE0003091900440919104509192040E9401830E94D182F6013C966093DB0471838283D5
:204B00009383C601B701A8019F010E94D71B80E090E0A0E0B0E08093B3099093B409A09361
:204B2000B509B093B6098093B7099093B809A093B909B093BA098093BB099093BC09A09311
:204B4000BD09B093BE098093BF099093C009A093C109B093C2098093C3099093C409A093B1
:204B6000C509B093C6091F910F91FF90EF90DF90CF90BF90AF909F908F9008958F929F925E
:204B8000AF92BF92CF92DF92EF92FF920F931F93CF93DF93EC016B01009709F45CC08FA936
:204BA000882309F058C0EEA0FFA008A519A5FB01B6A0A7A090A481A4C801B7012B2D3A2D6F
:204BC000492D582D0E94218088230CF044C0C801B701A80197010E9401837B018C016AA9E8
:204BE0007BA98CA99DA9905820E030E040E050EC0E9401832EA53FA548A959A90E940183CC
:204C00009B01AC01C801B7010E94487F0E946E837B018C016B2D7A2D892D982D9701A801CA
:204C20000E942180882324F4EB2CFA2C092D182D6B2D7A2D892D982D9701A8010E94218078
:204C4000882349F0C701D801F60186A397A3A0A7B1A781E086ABDF91CF911F910F91FF9095
:204C6000EF90DF90CF90BF90AF909F908F900895EF92FF920F931F93CF93DF93F090B109FA
:204C800000E010E020E030E04DE4E42E11C0FE9CE0011124C052DB4FC901B801AE016EDFB5
:204CA0008F2D8F5F803109F480E0F82E98018E018091B009F81659F7C901B80140E050E0F3
:204CC0005DDFDF91CF911F910F91FF90EF900895AF92BF92CF92DF92EF92FF920F931F9303
:204CE000CF93DF93EB018A016115710509F466C04115510509F462C0DAA4CBA4BCA4ADA4F1
:204D00006EA17FA188A599A52D2D3C2D4B2D5A2D0E942180882309F451C08FA9882309F05F
:204D200043C0F801E6A0F7A000A511A56D2D7C2D8B2D9A2DA80197010E942F821816A4F5E2
:204D4000C801B701A80197010E9401837B018C016AA97BA98CA99DA9905820E030E040E098
:204D600050EC0E9401832EA53FA548A959A90E9401839B01AC01C801B7010E94487F0E942C
:204D80006E837B018C016D2D7C2D8B2D9A2D9701A8010E942180882324F4ED2CFC2C0B2D97
:204DA0001A2DC701D80104C08D2D9C2DAB2DBA2D8EA39FA3A8A7B9A781E08EABDF91CF9179
:204DC0001F910F91FF90EF90DF90CF90BF90AF900895CF92DF92FF920F93DF93CF930F9202
:204DE0000F92CDB7DEB78091B0098091B0092091B10990E04096821B91098F7090700497E3
:204E00000CF10091B00903500F70CC24DD2440E050E06DE4F62E12C0802F002309F480E1C1
:204E2000082F01500F9DC001112480529B4F9A838983B6014DDFA601C980DA808091B1096B
:204E4000081751F70F900F90CF91DF910F91FF90DF90CF9008953F924F925F926F927F928E
:204E60008F929F92AF92BF92CF92DF92EF92FF920F931F93CF93DF938091DF04882309F4A6
:204E800000C18091DC039091DD0360E00E947F1180903C0390903D03A0903E03B0903F034C
:204EA00020E030E040E050E40E94487FA50194010E94218087FDE5C03090B1090F2EF0E0F7
:204EC0004F2EF0E05F2EF0E06F2EF0E07F2EF02DCDE4D0E058C0232D30E02C9FF0012D9F90
:204EE000F00D3C9FF00D1124E052FB4F80819181A281B3810097A105B10581F4848195813F
:204F0000A681B7810097A105B10541F480859185A285B3850097A105B10591F12C9F6001EF
:204F20002D9FD00C3C9FD00C112480EE94E0C80ED91EF60164857585868597850E94C38048
:204F40007B018C01F60160897189828993890E94C1809B01AC01C801B7010E942880F60159
:204F600022A133A144A155A10E9401837B018C01A30192010E942F82181614F4270138016F
:204F80003394FFE03F228091B009381609F0A3CFC301B20120914003309141034091420301
:204FA000509143030E9401839B01AC01C501B4010E94487F7B018C01A50194010E942180F0
:204FC00087FD02C0470158011091380300913903F0903A03E0903B03C501B401212F302FAC
:204FE0004F2D5E2D0E942F82181634F4812F902FAF2DBE2D4C015D014090C7095090C809CF
:205000006090C9097090CA09C301B201A50194010E942F821816C4F4C501B40120E037ED71
:2050200043EA5CE30E9401837B018C01C301B20128E431EE4AE75FE30E940183A801970159
:205040000E94487F4B015C018092C7099092C809A092C909B092CA09C501B4010E94908023
:20506000DC01CB0160E00E94A0129093DD038093DC038092E4039092E503A092E603B0929E
:20508000E703DF91CF911F910F91FF90EF90DF90CF90BF90AF909F908F907F906F905F9051
:2050A0004F903F9008951F939091B1098091B009981781F14091B109242F30E08DE490E05E
:2050C000289FF001299FF00D389FF00D1124E85DFA4F308120E06DE470E016C0842F90E071
:2050E000869FF001879FF00D969FF00D1124E85DFA4F80819181A281B3810097A105B10525
:2051000009F02F5F4F5F4F708091B009481731F7132F0AC06091660D662321F088E070E088
:205120000E94137D20E010E08091660D882339F4222329F488E060E070E00E94137D809154
:20514000660D882339F0112329F088E0612F70E00E94137D80DE1F9108951092B009109299
:20516000B10980E1EFECF4E0DF011D928A95E9F780E090E0A0E0B0E08093B7099093B80940
:20518000A093B909B093BA098093BB099093BC09A093BD09B093BE098093BF099093C0098B
:2051A000A093C109B093C2098093C3099093C409A093C509B093C6098093B3099093B40953
:2051C000A093B509B093B60908952F923F924F925F926F927F928F929F92AF92BF92CF9284
:2051E000DF92EF92FF920F931F93DF93CF93CDB7DEB766970FB6F894DEBF0FBECDBF9E8B7E
:205200008D8B6A017B0148015901DC01D8966D917D918D919C91DB970E94C180698B7A8BFC
:205220008B8B9C8BA70196010E9401830E940E800E9495806D837E838F83988769897A89CE
:205240008B899C89A50194010E9401830E940E800E94958069837A838B839C832D813E814A
:205260004F815885283731054105510540F448E750E060E070E04D835E836F8378876981A1
:205280007A818B819C81683771058105910540F488E790E0A0E0B0E089839A83AB83BC8300
:2052A000AD89BE89AC5BBF4FAD90BD90CD90DC901397A454B040BE8BAD8BDC966D917D9178
:2052C0008D919C91DF970E94C1806D877E878F87988BC601B5010E94C3801B012C0120E04D
:2052E00030E040E050E00E942180882321F4E0E070E060E028C069897A898B899C899B0149
:20530000AC010E9401837B018C016D857E858F8598899B01AC010E9401839B01AC01C80106
:20532000B7010E94477F7B018C01C201B101A20191010E94487F9B01AC01C801B7010E94C5
:205340002880E62F692F2E2F372F482F562FB901CA010E940E800E9490803B014C01ED89D3
:20536000FE89E05CFF4F60817181828193810E94C18069877A878B879C8766277727CB0132
:205380006A197B098C099D090E94C3805B016C0120E030E040E050E00E942180882321F4BA
:2053A000E0E070E060E028C069857A858B859C859B01AC010E9401837B018C0169897A892A
:2053C0008B899C899B01AC010E9401839B01AC01C801B7010E94477F7B018C01C601B5016D
:2053E000A60195010E94487F9B01AC01C801B7010E942880E62F692F2E2F372F482F562F87
:20540000B901CA010E94FE80ED89FE89A088B188C288D38886017501E618F70808091909B7
:205420000E949080A8019701261B370B480B590B57FF71C0C201B10120E030E040E050E0E3
:205440000E942180882321F4E0E070E060E044C0C201B101A20191010E94487F7B018C01D9
:20546000C601B5010E94C1809B01AC01C801B7010E9401837B018C016D857E858F859889A9
:205480009B01AC010E9401839B01AC01C801B7010E94477F7B018C0169857A858B859C8544
:2054A0009B01AC010E9401839B01AC01C801B7010E94487F7B018C01C201B10120E030E0BC
:2054C00040E850E40E9401839B01AC01C801B7010E942880E62F692F2E2F372F482F562FCA
:2054E000B901CA010E940E800E949080AC01CB01DA013C014D0197FE03C0662477244301A5
:205500006A147B048C049D0410F03501460120E030E040E050E09FB7F8946D897E89645BE2
:205520007F4FDB018C91AC54B040BE8BAD8B882321F5FD01648A758A868A978A260D371DCF
:20554000481D591D58962D933D934D935C935B972D813E814F815885DC962D933D934D9335
:205560005C93DF97A05CBF4F29813A814B815C812D933D934D935C9313979FBF66960FB686
:20558000F894DEBF0FBECDBFCF91DF911F910F91FF90EF90DF90CF90BF90AF909F908F90B1
:2055A0007F906F905F904F903F902F9008954F925F927F928F929F92AF92BF92CF92DF924B
:2055C000EF92FF920F931F93CF93DF937090B109C0E0D0E07DE4472E512C45C02097A9F1DE
:2055E0008EA9882361F4849CF001859CF00D949CF00D1124E052FB4F86A9882331F1EAA0E1
:20560000FBA00CA11DA16EA17FA188A599A5A80197010E9428805B016C01849CF001859C64
:20562000F00D949CF00D1124E052FB4F66A177A180A591A5A80197010E9428808B019C0161
:20564000CE01B601A501C1DD1EAA739480E1781609F47724849CE001859CD00D949CD00D1E
:205660001124C052DB4F872C992487FC90948091B00990E08816990609F0B0CF2097E9F023
:20568000EAA0FBA00CA11DA16EA17FA188A599A5A80197010E9428805B016C016DEC7CECCB
:2056A0008CE49DE3A80197010E9428808B019C01CE01B601A50189DD1EAADF91CF911F916C
:2056C0000F91FF90EF90DF90CF90BF90AF909F908F907F905F904F9008957BDBC9DA67CFC9
:2056E0002F923F924F925F926F927F928F929F92AF92BF92CF92DF92EF92FF920F931F9318
:20570000DF93CF93CDB7DEB7CC58D0400FB6F894DEBF0FBECDBF5C014B013A012901C757F5
:20572000DF4FE882C958D040C657DF4FF882CA58D040C557DF4F0883CB58D040C457DF4F58
:205740001883CC58D040A596DFAECEAEA5978091B0098F5F803109F480E0282F332727FD5F
:2057600030953CA72BA705C00E94DE1581E00E9466598091B10990E04BA55CA58417950730
:2057800099F3D5016D917D918D919C91209183043091840440918504509186040E940183E4
:2057A0000E94D182E2966FAFE297E3967FAFE397E4968FAFE497E5969FAFE597F401608176
:2057C00071818281938120918704309188044091890450918A040E9401830E94D182E696D3
:2057E0006FAFE697E7967FAFE797E8968FAFE897E9969FAFE997D3016D917D918D919C9132
:2058000020918B0430918C0440918D0450918E040E9401830E94D182EA966FAFEA97EB9667
:205820007FAFEB97EC968FAFEC97ED969FAFED97F201608171818281938120918F0430913E
:20584000900440919104509192040E9401830E94D182EE966FAFEE97EF967FAFEF97C15843
:20586000DF4F8883CF57D040C058DF4F9883C058D0408091DB049091DC04A091DD04B091EC
:20588000DE04C358DF4F288139814A815B81CD57D040281739074A075B0709F44DC0609172
:2058A000650DE62FF0E0EE0FFF1FE052FC4F808191810E947F1120E030E045E253E40E94A4
:2058C000218088230CF038C08091B209882309F033C0C358DF4F488159816A817B81CD572E
:2058E000D0404093DB045093DC046093DD047093DE04EFEFFBE0949108C08091C00085FF6F
:20590000FCCF9093C600319694919923B1F7E3E2FCE0949108C08091C00085FFFCCF9093B2
:20592000C600319694919923B1F78091C00085FFFCCF8AE08093C60060918F0470919004D5
:2059400080919104909192046DA37EA38FA398A78091DB049091DC04A091DD04B091DE0422
:20596000C358DF4F288139814A815B81CD57D040281B390B4A0B5B0BCA01B90157FF07C0BC
:2059800090958095709561957F4F8F4F9F4F0E94C3807B018C016DA17EA18FA198A520E0B0
:2059A00030E046EE53E40E9401839B01AC01C801B7010E942F8218160CF033C0C358DF4FC3
:2059C000488159816A817B81CD57D0404093DB045093DC046093DD047093DE04EFEFFBE022
:2059E000949108C08091C00085FFFCCF9093C600319694919923B1F7E5E0FCE0949108C0D3
:205A00008091C00085FFFCCF9093C600319694919923B1F78091C00085FFFCCF8AE0809390
:205A2000C6008091B009682F70E0A3967FAF6EAFA3978DE490E0689FF001699FF00D789F3C
:205A4000F00D1124E052FB4FE45BFF4F1082EC54F0408091CF049091D004A091D104B091E9
:205A6000D204A1968CAF9DAFAEAFBFAFA197E5962CAD3DAD4EAD5FADE597281B390B4A0BF2
:205A80005B0B6D962CAF3DAF4EAF5FAF6D97208331834283538357FF0DC0DA01C901B095C8
:205AA000A095909581959F4FAF4FBF4F80839183A283B3834091D3045091D4046091D504DF
:205AC0007091D60469964CAF5DAF6EAF7FAF6997E9968CAD9DADAEADBFADE997841B950B12
:205AE000A60BB70B65968CAF9DAFAEAFBFAF65978DE490E0A396AEADBFADA397A89FF00197
:205B0000A99FF00DB89FF00D1124E052FB4F65962CAD3DAD4EAD5FAD659724833583468352
:205B2000578357FF0DC0DA01C901B095A095909581959F4FAF4FBF4F84839583A683B78392
:205B40004091D7045091D8046091D9047091DA0461964CAF5DAF6EAF7FAF6197ED968CAD32
:205B60009DADAEADBFADED97841B950BA60BB70B2D968CAF9DAFAEAFBFAF2D978DE490E024
:205B8000A396AEADBFADA397A89FF001A99FF00DB89FF00D1124E052FB4F2D962CAD3DADC3
:205BA0004EAD5FAD2D97208731874287538757FF0DC0DA01C901B095A095909581959F4FAD
:205BC000AF4FBF4F80879187A287B3872090DB043090DC044090DD045090DE04C358DF4F4C
:205BE000488159816A817B81CD57D040421953096409750949A35AA36BA37CA3E091560365
:205C0000F0915703CB01BA0197FF07C090958095709561957F4F8F4F9F4F9F01442737FDB7
:205C20004095542F0E94D38324E630E040E050E00E9427848DE490E0A3966EAD7FADA397C2
:205C4000689FF001699FF00D789FF00D1124E052FB4FDF011C96248711963C93119712967F
:205C60004C93129713965C936080718082809380A480B580C680D780E084F1840285138530
:205C8000C901DA018E159F05A007B10714F4D801C7018A159B05AC05BD0514F4D601C501B9
:205CA0009C01AD0186159705A805B90514F4A40193018DE490E0A396AEADBFADA397A89F54
:205CC000B001A99F700DB89F700D112460527B4FFB01208B318B428B538B263031054105E9
:205CE000510510F40C943237E85BFF4F8091660D90E0A0E0B0E080839183A283B383DB015E
:205D000090961C92E5962CAD3DAD4EAD5FADE597A1968CAD9DADAEADBFADA19728173907B6
:205D20004A075B0724F481E0DB0190968C93E9962CAD3DAD4EAD5FADE99769966CAD7DAD0B
:205D40008EAD9FAD6997261737074807590794F48DE490E0A396AEADBFADA397A89FF001B7
:205D6000A99FF00DB89FF00D1124E052FB4F80A1826080A3ED962CAD3DAD4EAD5FADED97E2
:205D800061966CAD7DAD8EAD9FAD6197261737074807590794F48DE490E0A396AEADBFADB7
:205DA000A397A89FF001A99FF00DB89FF00D1124E052FB4F80A1846080A3C358DF4F28810D
:205DC00039814A815B81CD57D040221533054405550594F48DE490E0A3964EAD5FADA39739
:205DE000489FF001499FF00D589FF00D1124E052FB4F80A1886080A38DE490E0A3966EADE0
:205E00007FADA397689FF001699FF00D789FF00D1124E052FB4FA596AEADBFADA5978C91FF
:205E200081A3208131814281538129962CAF3DAF4EAF5FAF2997211531054105510509F002
:205E400017988DE490E0A3964EAD5FADA397489FF001499FF00D589FF00D1124E052FB4FD6
:205E6000648175818681978125966CAF7DAF8EAF9FAF2597611571058105910509F0169830
:205E80008DE490E0A396AEADBFADA397A89FF001A99FF00DB89FF00D1124E052FB4F608481
:205EA000718482849384611471048104910409F015988DE490E0A3962EAD3FADA397289F44
:205EC000F001299FF00D389FF00D1124E052FB4F84859585A685B7850097A105B10551F0C9
:205EE00014982090A3043090A4044090A5045090A60408C02090BB043090BC044090BD04EC
:205F00005090BE04C757DF4F6881C958D040C657DF4F7881CA58D040C557DF4F8881CB588D
:205F2000D040C457DF4F9881CC58D040A20191010E94218087FD16C0C757DF4F8881C95873
:205F4000D040C657DF4F9881CA58D040C557DF4FA881CB58D040C457DF4FB881CC58D0403F
:205F60001C012D016D966CAD7DAD8EAD9FAD6D970E94C38020918304309184044091850445
:205F8000509186040E942880AE966FAFAE97AF967FAFAF97E0968FAFE097E1969FAFE19784
:205FA000AC01CB01DA0189839A83AB83BC8365966CAD7DAD8EAD9FAD65970E94C3802091A0
:205FC0008704309188044091890450918A040E942880AA966FAFAA97AB967FAFAB97AC9640
:205FE0008FAFAC97AD969FAFAD97AC01CB01DA018D839E83AF83B8872D966CAD7DAD8EAD14
:206000009FAD2D970E94C38020918B0430918C0440918D0450918E040E942880A6966FAF81
:20602000A697A7967FAFA797A8968FAFA897A9969FAFA997AC01CB01DA0189879A87AB873B
:20604000BC87E0905603F090570369A17AA18BA19CA10E94C3802DA13EA14FA158A50E94AB
:2060600028805B016C010027F7FC0095102FC801B7010E94C3809B01AC01C601B5010E94F3
:20608000018320E030E048EC52E40E9428809B01AC016D877E878F87988B29966CAD7DAD3B
:2060A0008EAD9FAD299766307105810591053CF525968CAD9DADAEADBFAD25970697A1053C
:2060C000B105ECF496E06916710481049104BCF48DE490E0A396AEADBFADA397A89FF001A3
:2060E000A99FF00DB89FF00D1124E052FB4FDA01C901BF7786A797A7A0ABB1AB55C0AE9610
:206100002FADAE97AF963FADAF97E0964FADE097E1965FADE197B901CA010E94B8833B0165
:206120004C01AA962FADAA97AB963FADAB97AC964FADAC97AD965FADAD97B901CA010E940B
:20614000B8835B016C01A6962FADA697A7963FADA797A8964FADA897A9965FADA997B901C1
:20616000CA010E94B8837B018C01C401B301A60195010E94487FA80197010E94487F0E9403
:206180006E832DE430E0A3964EAD5FADA397429FF001439FF00D529FF00D1124E052FB4F23
:2061A00066A777A780AB91AB8DE490E0A3966EAD7FADA397689FF001699FF00D789FF00DA1
:2061C0001124E052FB4F66A477A480A891A860E070E080E89FE3A40193010E9428809B01EF
:2061E000AC01C201B1010E9401831B012C018091B0099091B109A82FB0E05096A91BB1099E
:20620000AF70B070BAA7A9A7A230B1050CF451C05D01CC24B7FCC094DC2CC601B5010E9479
:20622000C38020E030E040E051E40E94218088230CF03FC060E074E284E799E4A20191011A
:206240000E9428800E94D1827B018C0160916F04709170048091710490917204E616F70607
:206260000807190730F56E197F09800B910B660F771F881F991FA60195010E940584CA01F7
:20628000B9010E94C1800E94D1829B01AC012E0D3F1D401F511FCA01B9010E94C1809B01B9
:2062A000AC0160E074E284E799E40E9428801B012C018DE490E0A396EEADFFADA397E89FFE
:2062C0008001E99F100DF89F100D112400521B4FC401B301A20191010E940183D80192961E
:2062E0006D937D938D939C93959750966D917D918D919C9153970E94C180A20191010E9432
:2063000001830E940E800E949580F80160AF71AF82AF93AFCF57DF4F1882C158D040CE573B
:20632000DF4F1882C258D040F0E8CD57DF4FF883C358D0402FE3CC57DF4F2883C458D04061
:20634000AA24BB24E1E0F0E0EC0FFD1FEA0DFB1DC201B10120813181428153810E94018354
:20636000E1E1F0E0EC0FFD1FEA0DFB1D60837183828393833B014C01E89497F8F501ED58A4
:20638000FB4FE080F18002811381C401B301A80197010E942F82181614F5C801B701A40161
:2063A00093010E9428806B017C01CF57DF4F6881C158D040CE57DF4F7881C258D040CD5716
:2063C000DF4F8881C358D040CC57DF4F9881C458D040A70196010E9421808823B4F4CF57CA
:2063E000DF4F8881C158D040CE57DF4F9881C258D040CD57DF4FA881C358D040CC57DF4FB0
:20640000B881C458D0406C017D0144E050E0A40EB51E50E1A516B104B9F0D701C601CF5744
:20642000DF4FC882C158D040CE57DF4F9883C258D040CD57DF4FA883C358D040CC57DF4F2A
:20644000B883C458D0407ECFC701B60120E030E040E85FE30E94218088230CF04CC08E010A
:206460000F5E1F4F81E2A82EB12CAC0EBD1ED8016D917D918D919C91A70196010E94018301
:20648000F80161937193819391938F01EA15FB0571F78DE490E0A3962EAD3FADA397289FFA
:2064A0008001299F100D389F100D112400521B4FD80192966D917D918D919C919597A70165
:2064C00096010E940183F80162A373A384A395A360AD71AD82AD93AD0E94C180A7019601D0
:2064E0000E9401830E949580D801D8966D937D938D939C93DB978DE490E0A396EEADFFAD46
:20650000A397E89F8001E99F100DF89F100D112400521B4FD80150966D917D918D919C91D9
:2065200053970E94C180F80126A537A540A951A90E9428801B012C01F80180819181A28149
:20654000B3810097A105B10549F584819581A681B7810097A105B10509F580859185A28529
:20656000B3850097A105B105C9F4C201B1012091AB043091AC044091AD045091AE040E9436
:2065800001830E940E800C5B1F4F0E949580D8016D937D938D939C93139771C1C201B10132
:2065A0002091A7043091A8044091A9045091AA040E9401830E940E800E9495802DE430E0D7
:2065C000A396EEADFFADA397E29F6001E39FD00CF29FD00C112420EE34E0C20ED31EB4E4A4
:2065E0006B2E712C6C0C7D1CD3016D937D938D939C9313978090BF049090C004A090C104CB
:20660000B090C2040E94C1807B018C01F60160817181828193810E94C3809B01AC01C801B0
:20662000B7010E9401837B018C01D60150966D917D918D919C9153970E94C1809B01AC0149
:20664000C801B7010E9428807B018C01C501B4010E94C1809B01AC01C801B7010E942F82EB
:2066600018162CF4F30180829182A282B3828090C3049090C404A090C504B090C6048DE437
:2066800090E0A3962EAD3FADA397289F6001299FD00C389FD00C112440EE54E0C40ED51E75
:2066A000A4E46A2E712C6C0C7D1CD3016D917D918D919C910E94C1807B018C01F601648119
:2066C0007581868197810E94C3809B01AC01C801B7010E9401837B018C01D60150966D910C
:2066E0007D918D919C9153970E94C1809B01AC01C801B7010E9428807B018C01C501B401DC
:206700000E94C1809B01AC01C801B7010E942F8218162CF4F30180829182A282B3828090B9
:20672000CB049090CC04A090CD04B090CE048DE490E0A3962EAD3FADA397289F6001299F7C
:20674000D00C389FD00C112440EE54E0C40ED51EF4E46F2E712C6C0C7D1CD3016D917D914B
:206760008D919C910E94C1807B018C01F60164857585868597850E94C3809B01AC01C801EA
:20678000B7010E9401837B018C01D60150966D917D918D919C9153970E94C1809B01AC01E8
:2067A000C801B7010E9428807B018C01C501B4010E94C1809B01AC01C801B7010E942F828A
:2067C00018162CF4F30180829182A282B3828090C7049090C804A090C904B090CA048DE4C6
:2067E00090E0A3962EAD3FADA397289F6001299FD00C389FD00C112440EE54E0C40ED51E14
:20680000E4E46E2E712C6C0C7D1CD3016D917D918D919C910E94C1807B018C01F601608573
:206820007185828593850E94C3809B01AC01C801B7010E9401837B018C01D60150966D91AA
:206840007D918D919C9153970E94C1809B01AC01C801B7010E9428807B018C01C501B4017A
:206860000E94C1809B01AC01C801B7010E942F8218162CF4F30180829182A282B3828DE4F7
:2068800090E0A3962EAD3FADA397289F6001299FD00C389FD00C112440EE54E0C40ED51E73
:2068A000F601EC5BFF4F60817181828193810E94C1807B018C01A20191010E942880D60120
:2068C000D2966D937D938D939C93D597C801B7012DEB37E346E051E40E9401830E9490809F
:2068E000F601648F758F868F978F2091AF043091B0044091B1045091B20421962CAF3DAFFB
:206900004EAF5FAF2197498D5A8D6B8D7C8D49AF5AAF6BAF7CAF6091B3047091B40480913E
:20692000B5049091B6046DAB7EAB8FAB98AF20E030E040E05FE30E9401837B018C0169AD4A
